:020000040800F2
:100000000050002071230008150F0008170F00088A
:10001000190F00081B0F00081D0F0008000000004A
:100020000000000000000000000000001F0F00089A
:10003000210F000800000000230F0008250F000812
:10004000B9230008B9230008B9230008B923000820
:10005000B9230008B9230008B9230008B923000810
:100060002D0F0008610F0008B9230008B92300080C
:10007000B9230008B9230008B9230008B9230008F0
:10008000B9230008B9230008B9230008B9230008E0
:10009000B9230008B9230008B9230008B9230008D0
:1000A000B9230008B9230008B9230008B9230008C0
:1000B000B9230008B9230008B9230008B9230008B0
:1000C000B9230008B9230008B9230008B9230008A0
:1000D000B9230008B9230008B9230008B923000890
:1000E000B9230008B9230008B92300080000000064
:1000F0000000000000000000000000000000000000
:0C01000000000000000000005FF808F1A3
:10010C0010B5054C237833B9044B13B10448AFF345
:10011C0000800123237010BD3C040020000000006F
:10012C008825000808B5034B1BB103490348AFF3FE
:10013C00008008BD00000000400400208825000855
:10014C0080F0004002E000BF81F0004142001FBF80
:10015C005FEA410392EA030F7FEA226C7FEA236C89
:10016C006AD04FEA1262D2EB1363C1BFD21841407E
:10017C0048404140B8BF5B42192B88BF704710F014
:10018C00004F40F4000020F07F4018BF404211F0B7
:10019C00004F41F4000121F07F4118BF494292EA1F
:1001AC00030F3FD0A2F1010241FA03FC10EB0C004B
:1001BC00C3F1200301FA03F100F0004302D54942D8
:1001CC0060EB4000B0F5000F13D3B0F1807F06D385
:1001DC0040084FEA310102F10102FE2A51D2B1F17D
:1001EC00004F40EBC25008BF20F0010040EA030072
:1001FC007047490040EB0000013A28BFB0F5000FF2
:10020C00EDD2B0FA80FCACF1080CB2EB0C0200FAA7
:10021C000CF0AABF00EBC25052421843BCBFD040F6
:10022C001843704792F0000F81F4000106BF80F470
:10023C0000000132013BB5E74FEA41037FEA226C33
:10024C0018BF7FEA236C21D092EA030F04D092F0FE
:10025C00000F08BF0846704790EA010F1CBF002032
:10026C00704712F07F4F04D1400028BF40F000408F
:10027C00704712F100723CBF00F50000704700F0AF
:10028C00004343F0FE4040F4000070477FEA2262D6
:10029C0016BF08467FEA23630146420206BF5FEAA7
:1002AC00412390EA010F40F4800070474FF00003A7
:1002BC0004E000BF10F0004348BF40425FEA000C6E
:1002CC0008BF704743F0964301464FF000001CE016
:1002DC0050EA010208BF70474FF000030AE000BF6C
:1002EC0050EA010208BF704711F0004302D54042AA
:1002FC0061EB41015FEA010C02BF8446014600201C
:10030C0043F0B64308BFA3F18053A3F50003BCFA36
:10031C008CF2083AA3EBC25310DB01FA02FC6344E3
:10032C0000FA02FCC2F12002BCF1004F20FA02F2EA
:10033C0043EB020008BF20F00100704702F12002DD
:10034C0001FA02FCC2F1200250EA4C0021FA02F23E
:10035C0043EB020008BF20EADC7070474FF0FF0C43
:10036C001CEAD0521EBF1CEAD15392EA0C0F93EA3E
:10037C000C0F6FD01A4480EA010C400218BF5FEAE0
:10038C0041211ED04FF0006343EA501043EA511153
:10039C00A0FB01310CF00040B1F5000F3EBF49004D
:1003AC0041EAD3715B0040EA010062F17F02FD2A51
:1003BC001DD8B3F1004F40EBC25008BF20F0010034
:1003CC00704790F0000F0CF0004C08BF49024CEA4B
:1003DC00502040EA51207F3AC2BFD2F1FF0340EADD
:1003EC00C250704740F400004FF00003013A5DDC4E
:1003FC0012F1190FDCBF00F000407047C2F100028F
:10040C00410021FA02F1C2F1200200FA02FC5FEA7B
:10041C00310040F1000053EA4C0308BF20EADC70C5
:10042C00704792F0000F00F0004C02BF400010F437
:10043C00000F013AF9D040EA0C0093F0000F01F0E4
:10044C00004C02BF490011F4000F013BF9D041EA06
:10045C000C018FE70CEAD15392EA0C0F18BF93EA08
:10046C000C0F0AD030F0004C18BF31F0004CD8D132
:10047C0080EA010000F00040704790F0000F17BFB9
:10048C0090F0004F084691F0000F91F0004F14D0FF
:10049C0092EA0C0F01D142020FD193EA0C0F03D157
:1004AC004B0218BF084608D180EA010000F000405A
:1004BC0040F0FE4040F40000704740F0FE4040F435
:1004CC00400070474FF0FF0C1CEAD0521EBF1CEAD4
:1004DC00D15392EA0C0F93EA0C0F69D0A2EB0302F2
:1004EC0080EA010C49024FEA402037D04FF080538C
:1004FC0043EA111143EA10130CF000408B4238BF51
:10050C005B0042F17D024FF4000C8B4224BF5B1A5E
:10051C0040EA0C00B3EB510F24BFA3EB510340EAAC
:10052C005C00B3EB910F24BFA3EB910340EA9C005A
:10053C00B3EBD10F24BFA3EBD10340EADC001B01CA
:10054C0018BF5FEA1C1CE0D1FD2A3FF650AF8B426E
:10055C0040EBC25008BF20F0010070470CF0004C7B
:10056C004CEA50207F32C2BFD2F1FF0340EAC250A6
:10057C00704740F400004FF00003013A37E792F067
:10058C00000F00F0004C02BF400010F4000F013AC5
:10059C00F9D040EA0C0093F0000F01F0004C02BFC0
:1005AC00490011F4000F013BF9D041EA0C0195E729
:1005BC000CEAD15392EA0C0F08D142027FF47DAFC2
:1005CC0093EA0C0F7FF470AF084676E793EA0C0FB2
:1005DC0004D14B023FF44CAF08466EE730F0004CB0
:1005EC0018BF31F0004CCAD130F000427FF45CAF40
:1005FC0031F000437FF43CAF5FE700BF42000ED206
:10060C00B2F1FE4F0BD34FF09E03B3EB126209D441
:10061C004FEA002343F0004323FA02F070474FF0F7
:10062C000000704712F1610F01D1420202D14FF06C
:10063C00FF3070474FF00000704700BF10B500F05E
:10064C00C9F900F0C5FD094C0021204601F0BCFDA4
:10065C000421204601F0B8FD054C0021204601F094
:10066C00B3FD0421204601F0AFFD10BDC4040020F1
:10067C007C040020B1F57A7F01D34FF47A7128B154
:10068C00054B1B6800229A6359637047024B1B6829
:10069C0000225A6399637047C4040020B1F57A7F35
:1006AC0001D34FF47A7128B1054B1B6800229A6371
:1006BC0059637047024B1B6800225A639963704759
:1006CC007C04002008B500210120FFF7D3FF002196
:1006DC000120FFF7E3FF08BD10B5044601460120D9
:1006EC00FFF7C8FF21460120FFF7D8FF10BD10B55A
:1006FC00044601460020FFF7BDFF21460020FFF70E
:10070C00CDFF10BD10B5044601460020FFF7B2FF27
:10071C0021460120FFF7C2FF10BD10B5044601466B
:10072C000120FFF7A7FF21460020FFF7B7FF10BD00
:10073C0008B502464FF48071014800F0A6FF08BDD1
:10074C00000C014008B502464FF40071014800F05E
:10075C009CFF08BD000C014008B500F03BF90120DE
:10076C00FFF7E6FF0120FFF7EDFF08BD08B50120FC
:10077C00FFF7E8FF0120FFF7DBFF0020FFF7E2FFA8
:10078C000020FFF7D5FF08BD08B50020FFF7DAFF02
:10079C000120FFF7CDFF0120FFF7D4FF08BD38B5CE
:1007AC00054600240CE0802020412840FFF7CAFFBA
:1007BC000120FFF7BDFF0020FFF7BAFF0134E4B2C0
:1007CC00072CF0D90120FFF7B3FF0020FFF7B0FF93
:1007DC0038BD10B50446FFF7C9FF7820FFF7DFFFDF
:1007EC000020FFF7DCFF2046FFF7D9FFFFF7CCFF17
:1007FC0010BD10B50446FFF7B9FF7820FFF7CFFF07
:10080C004020FFF7CCFF2046FFF7C9FFFFF7BCFFE6
:10081C0010BD10B50C4640F0B000FFF7DAFF200910
:10082C0040F01000FFF7D5FF04F00F00FFF7D1FFE9
:10083C0010BD38B5002509E00020FFF7DAFF0134C0
:10084C00E4B214F0800FF7D00135EDB2072D05D8C6
:10085C0000212846FFF7DDFF0024F2E738BD000039
:10086C00F8B51546461E7600F6B24F1EFF00FFB2D5
:10087C0039463046FFF7CDFF002409E0A5F12003EF
:10088C000F4A02EB0313185DFFF7B3FF0134E4B218
:10089C00072CF3D9701C3946C0B2FFF7BAFF0024FD
:1008AC000BE0A5F1200304F10802054901EB031349
:1008BC00985CFFF79EFF0134E4B2072CF1D9F8BD28
:1008CC00A02500080246012002E002FB00F01946B8
:1008DC004B1E0029F9D170472DE9F04180460F4697
:1008EC0016461D46002407E0E1193732C9B24046CE
:1008FC00FFF7B6FF0134E4B2AC4211D2291B013927
:10090C001020FFF7DFFFB6FBF0F202F00F02092A0E
:10091C00EAD8E1193032C9B24046FFF7A1FFE9E746
:10092C00BDE8F08108B5002204E00133B3F57A7F0D
:10093C00FBD30132B2F57A7F01D20023F6E7FFF741
:10094C000BFFAE20FFF745FFD520FFF742FF8020BD
:10095C00FFF73FFFA820FFF73CFF3F20FFF739FFD1
:10096C00D320FFF736FF0020FFF733FF4020FFF7BF
:10097C0030FFA120FFF72DFFC820FFF72AFFDA2058
:10098C00FFF727FF1220FFF724FF8120FFF721FF3D
:10099C00CF20FFF71EFFD920FFF71BFFF120FFF739
:1009AC0018FFDB20FFF715FF3020FFF712FFA42004
:1009BC00FFF70FFFA620FFF70CFF8D20FFF709FFB5
:1009CC001420FFF706FFAF20FFF703FFFFF731FFFF
:1009DC0008BD00002DE9F04389B00024049405946F
:1009EC0006940794464B9A6942F010029A619A69F0
:1009FC0002F010020092009A9A6942F020029A6169
:100A0C009A6902F020020192019A9A6942F004025A
:100A1C009A619A6902F004020292029A9A6942F06F
:100A2C0008029A619B6903F008030393039BDFF8A8
:100A3C00D49022464FF40051484600F026FE324E28
:100A4C0001221021304600F020FE2246A021304623
:100A5C0000F01BFEDFF8B48022464FF44071404694
:100A6C0000F013FE4FF400530493012505950694F2
:100A7C000227079704A9484600F0EEFC0C230493C8
:100A8C00234B0593069504A9304600F0E5FC102392
:100A9C000493059506940323079304A9304600F0AC
:100AAC00DBFCA023049305950694079704A9304614
:100ABC0000F0D2FC402304930594069504A930461B
:100ACC0000F0CAFC4FF44073049305950694079705
:100ADC0004A9404600F0C0FC22462146082000F044
:100AEC0061FC082000F096FC22462146092000F00B
:100AFC0059FC092000F08EFC09B0BDE8F08300BF62
:100B0C00001002400010014000080140000C0140A0
:100B1C000000211008B50649FFF7D4FC0549FFF782
:100B2C001DFC0549FFF712FBFFF768FD80B208BDFD
:100B3C00000034430000FA440000FA4372B6FEE7AA
:100B4C0000B591B02822002106A801F055FC002325
:100B5C0001930293039304930593012206924FF49D
:100B6C00803307930A9202220D920E934FF4E013F6
:100B7C000F9306A800F0B4FD80B90F230193022156
:100B8C000291002303934FF480620492059301A811
:100B9C0000F0D8FF20B911B05DF804FBFFF7CEFFD1
:100BAC00FFF7CCFF08B500F0C7FBFFF7C9FFFFF755
:100BBC0011FF00F00DFB00F08DFA00F057FBFFF772
:100BCC00B1FEFFF73BFD0021284801F0FDFA21E0C2
:100BDC004FF47A70FFF780FD254B5C79002C3AD0EE
:100BEC000020FFF797FF214B1B6858630423224614
:100BFC0001210846FFF770FE1D4C0423E279012108
:100C0C000220FFF769FE042394F90320012103203D
:100C1C00FFF762FEFFF756FD00F034F9144BDB7A58
:100C2C00002BD5D1124B1B7B5BB9114B9B7A6BB94B
:100C3C000F4B5B7A002BCFD04FF4FA70FFF76DFDA2
:100C4C00CAE74FF47A70FFF752FDC5E74FF4FA701C
:100C5C00FFF758FDC0E7064BDB79002BC6D00548E3
:100C6C00FFF758FF014B1B685863BFE70C050020CA
:100C7C00580400200000344310B5044601F018F865
:100C8C00054BA3FB00235B0D04FB03F0034601386B
:100C9C00002BFBD110BD00BF83DE1B4308B528B170
:100CAC0001221021044800F0F0FC08BD00221021A4
:100CBC00014800F0EAFCF8E70008014008B528B14B
:100CCC0001222021044800F0E0FC08BD0022202174
:100CDC00014800F0DAFCF8E70008014008B528B13B
:100CEC0001228021044800F0D0FC08BD00228021A4
:100CFC00014800F0CAFCF8E70008014008B54021A3
:100D0C00014800F0BBFC08BD0008014070B5064668
:100D1C0000252C461CE00020FFF7E0FF76080120A0
:100D2C00FFF7CCFF3220FFF7A7FF0020FFF7C6FF2D
:100D3C006408FFF7E3FF44EAC014E4B23220FFF783
:100D4C009BFF0120FFF7BAFF3220FFF795FF01351B
:100D5C00072D06DC16F0010FDDD00120FFF7BEFFDA
:100D6C00DCE7204670BD0000444B9B785A2B00D02A
:100D7C0070472DE9F041414EF27882F0010101F00B
:100D8C0001013F4B5974D7436FEAD20101F00101C5
:100D9C0099746FEA121E0EF0010E83F80BE06FEAE5
:100DAC00521404F001045C726FEA921505F001050F
:100DBC001D736FEAD21202F001019972327982F03E
:100DCC00010000F0010098716FEA520000F0010080
:100DDC0018726FEA920000F0010058716FEAD200AD
:100DEC0000F00100D8716FEA121000F00100D87306
:100DFC006FEA521C0CF0010C83F80DC06FEA9218CC
:100E0C0008F0010883F810806FEAD21202F0010298
:100E1C009A737378412B03D0732B16D0BDE8F081F5
:100E2C00174B611AC1EBC111D970AEEB0505C5EBBF
:100E3C00C5151D71ACEB0202C2EBC2125A70A0EBCD
:100E4C000800C0EBC0109870E8E7C7F340020C4BE9
:100E5C00DA74C7F380071F750849CA79803ADA70CB
:100E6C000A7A82F08002D2431A714A79803A5A7017
:100E7C008A7982F08002D2439A70CFE77004002006
:100E8C005804002010B50020FFF708FF0120FFF7E1
:100E9C003DFF0B4C20704220FFF738FF607002249E
:100EAC0005E0FF20FFF732FF054B18550134082CE5
:100EBC00F7DD0120FFF7F2FEFFF756FF10BD00BF74
:100ECC007004002082B00E4B9A6942F001029A61C4
:100EDC009A6902F001020092009ADA6942F080529B
:100EEC00DA61DB6903F080530193019B054A536877
:100EFC0023F0E06343F00073536002B0704700BF0F
:100F0C000010024000000140FEE7FEE7FEE7FEE7AE
:100F1C00FEE770477047704708B500F01FFA08BD30
:100F2C0008B5094B5B6913F0040F00D108BD08210B
:100F3C00064800F0A3FB18B9054A13880133138047
:100F4C00042000F0A9FBF1E7000401400008014077
:100F5C007A04002008B5094B5B6913F0080F00D127
:100F6C0008BD0421064800F089FB18B9054A13880E
:100F7C00013B1380082000F08FFBF1E700040140D7
:100F8C00000801407A040020704700000268094BF9
:100F9C009A4200D0704782B003F564439A6942F4D8
:100FAC0000629A619B6903F400630193019B02B098
:100FBC00704700BF002C014082B00368B3F1804F32
:100FCC0004D00E4A93420DD002B0704703F504339F
:100FDC00DA6942F00102DA61DB6903F00103009384
:100FEC00009BF1E7064BDA6942F00202DA61DB6939
:100FFC0003F002030193019BE6E700BF00040040ED
:10100C000010024000B589B00023049305930693A9
:10101C0007930368294A934208D0B3F1804F1AD042
:10102C00274A93422CD009B05DF804FB254B9A69F2
:10103C0042F004029A619B6903F004030193019B43
:10104C004FF44073049302230593079304A91E489D
:10105C0000F002FAE7E703F504339A6942F0040260
:10106C009A619B6903F004030293029B032304938C
:10107C0002230593079304A9134800F0EDF9D2E776
:10108C00104B9A6942F008029A619B6903F00803BD
:10109C000393039B1023049302230593079304A942
:1010AC000A4800F0D9F90A4A536823F4406343F024
:1010BC00E06343F400635360B5E700BF002C0140CC
:1010CC00000400400010024000080140000C0140E8
:1010DC000000014010B596B000241294139414949F
:1010EC0015941094119409940A940B940C940D94E7
:1010FC000E940F942022214601A801F07DF932486C
:10110C00324B036040F2CF234360846040F2E733FC
:10111C00C36004614461846100F0C4FE00283ED1C8
:10112C004FF48053129312A9274800F0BFFF0028F8
:10113C0038D1254800F0E2FE002836D10023109368
:10114C00119310A9204801F0ADF8002830D160238C
:10115C00099300220A920B920C920D920E920F920E
:10116C0009A9194800F028FF28BB042209A9164830
:10117C0000F022FF10BB002301930293039304930E
:10118C0005934FF400520692089301A90E4801F002
:10119C00BFF8B0B90C48FFF735FF16B010BDFFF71C
:1011AC00CDFCBDE7FFF7CAFCC3E7FFF7C7FCC5E7FB
:1011BC00FFF7C4FCCBE7FFF7C1FCD6E7FFF7BEFC9B
:1011CC00D9E7FFF7BBFCE5E77C040020002C0140CD
:1011DC0000B58BB0002308930993019302930393FA
:1011EC0004930593069307931F484FF080420260C7
:1011FC0040F2CF224260836040F2E732C26003616A
:10120C008023836100F07AFE10BB002308930993BE
:10121C0008A9154801F046F8E8B9602301930022AB
:10122C0002920392059201A90F4800F0C5FEA8B9DD
:10123C004FF4FA73029304220DEB02010A4800F0FA
:10124C00BBFE70B90848FFF7DDFE0BB05DF804FB80
:10125C00FFF774FCD9E7FFF771FCDEE7FFF76EFCD4
:10126C00E6E7FFF76BFCEDE7C404002000B58BB09C
:10127C00002308930993019302930393049305931A
:10128C00069307931748184A02604722426083600E
:10129C0044F61F62C2600361836100F02FFEC0B987
:1012AC0000230893099308A90E4800F0FBFF98B996
:1012BC0060230193002202920392059201A909482E
:1012CC0000F07AFE58B90748FFF79CFE0BB05DF8AA
:1012DC0004FBFFF733FCE3E7FFF730FCE8E7FFF72D
:1012EC002DFCF0E70C0500200004004010B504466E
:1012FC000E4B18784FF47A73B3FBF0F30C4A10686A
:10130C00B0FBF3F000F094F868B90F2C01D9012070
:10131C000AE0002221464FF0FF3000F043F8054B65
:10132C001C60002000E0012010BD00BF0400002064
:10133C00000000200800002008B5074A136843F09D
:10134C0010031360032000F01BF80F20FFF7CEFFF3
:10135C00FFF7B8FD002008BD00200240034A1168C9
:10136C00034B1B780B441360704700BF54050020DF
:10137C0004000020014B1868704700BF5405002082
:10138C00074AD36823F4E0631B041B0C000200F42F
:10139C00E060034343F0BF6343F40033D360704712
:1013AC0000ED00E000B5194BDB68C3F30223C3F179
:1013BC00070CBCF1040F28BF4FF0040C03F1040E12
:1013CC00BEF1060F18D9033B4FF0FF3E0EFA0CFC92
:1013DC0021EA0C0199400EFA03F322EA03031943A4
:1013EC0000280BDB0901C9B200F1604000F5614037
:1013FC0080F800135DF804FB0023E5E700F00F0014
:10140C000901C9B2024B1954F4E700BF00ED00E02A
:10141C0014ED00E0002807DB00F01F024009012357
:10142C009340024A42F82030704700BF00E100E0D0
:10143C000138B0F1807F0BD24FF0E0235861054AA0
:10144C00F02182F823100020986107221A6170475E
:10145C000120704700ED00E070B582B00024A44676
:10146C00A6E0804DAA4210D007D97F4DAA420CD0DD
:10147C0005F58035AA4208D013E0A5F58015AA42DF
:10148C0003D005F57025AA4207D18A68002A58D0E6
:10149C00012A51D04361082403E0A5F58015AA4226
:1014AC00F3D0BEF1FF0F4ED80646BEF1FF0F4CD85D
:1014BC004FEA8C0233680F25954023EA050304FAA2
:1014CC0002F2134333604B6813F0805F6ED0674BAE
:1014DC009A6942F001029A619B6903F0010301933E
:1014EC00019B4FEA9C02951C614B53F825600CF054
:1014FC0003039D000F23AB4026EA03065D4B984285
:10150C0029D003F58063984200F08E8003F5806348
:10151C00984200F08B8003F58063984219D0042325
:10152C001AE0CC68BDE7CC680434BAE7CC68083460
:10153C00B7E7CC680C34B4E703610824B1E70024A6
:10154C00AFE70424ADE7061DAFE7ACF1080292004B
:10155C00B0E7032300E00023AB4033430232444D99
:10156C0045F822304B6813F4801F61D0424A9368CF
:10157C0043EA0E0393604B6813F4001F5ED03E4A9F
:10158C00D36843EA0E03D3604B6813F4003F5BD07F
:10159C00394A536843EA0E0353604B6813F4803F97
:1015AC0058D0354A136843EA0E0313600CF1010C52
:1015BC000A6832FA0CF353D0012303FA0CF302EA53
:1015CC00030E33EA0202F1D14A68122A3FF649AF00
:1015DC00122A3FF666AF01A555F822F097140008C1
:1015EC002F150008391500084B150008AF1400081A
:1015FC00AF140008AF140008AF140008AF140008B3
:10160C00AF140008AF140008AF140008AF140008A2
:10161C00AF140008AF140008AF140008AF14000892
:10162C00331500083F150008012395E7022393E7C3
:10163C00114A936823EA0E0393609CE70E4AD36821
:10164C0023EA0E03D3609FE70B4A536823EA0E0389
:10165C005360A2E7084A136823EA0E031360A5E758
:10166C0002B070BD000022100000311000100240CA
:10167C000000014000080140000401408368194249
:10168C0001D001207047002070470AB101617047FA
:10169C00090401617047704708B5054B5B6903424B
:1016AC0000D108BD024B5861FFF7F5FFF9E700BF09
:1016BC000004014082B0084B1B68084AA2FB0323BC
:1016CC005B0A00FB03F3019300BF019B5A1E0192BE
:1016DC00002BF9D102B0704700000020D34D6210EE
:1016EC00002800F0F18170B582B00446036813F055
:1016FC00010F2CD0994B5B6803F00C03042B1DD00D
:10170C00964B5B6803F00C03082B12D06368B3F59F
:10171C00803F41D0002B55D103F1804303F50433B6
:10172C001A6822F480321A601A6822F480221A6035
:10173C0037E08A4B5B6813F4803FE7D0874B1B681C
:10174C0013F4003F03D06368002B00F0BF812368C3
:10175C0013F0020F75D0814B5B6813F00C0F5FD048
:10176C007E4B5B6803F00C03082B54D02369002BD1
:10177C0000F08A807A4B01221A60FFF7FBFD0546C8
:10178C00764B1B6813F0020F75D1FFF7F3FD401B6E
:10179C000228F5D903209EE1704A136843F4803384
:1017AC001360636843B3FFF7E5FD05466B4B1B689D
:1017BC0013F4003FCBD1FFF7DDFD401B6428F5D9B6
:1017CC00032088E1B3F5A02F09D0644B1A6822F4EA
:1017DC0080321A601A6822F480221A60E1E703F161
:1017EC008043A3F53C331A6842F480221A601A68CD
:1017FC0042F480321A60D4E7FFF7BCFD0546574B24
:10180C001B6813F4003FA2D0FFF7B4FD401B642803
:10181C00F5D903205FE1514B5B6813F4803FA5D1F0
:10182C004E4B1B6813F0020F03D02369012B40F0C1
:10183C004F814A4A136823F0F803616943EAC103F4
:10184C001360236813F0080F33D0A369002B5CD00E
:10185C00434B0122C3F88024FFF78CFD05463F4B18
:10186C005B6A13F0020F21D1FFF784FD401B0228A5
:10187C00F5D903202FE1394A136823F0F803616985
:10188C0043EAC1031360DCE7354B00221A60FFF713
:10189C0071FD0546314B1B6813F0020FD1D0FFF7D9
:1018AC0069FD401B0228F5D9032014E10120FFF744
:1018BC0001FF236813F0040F00F09680274BDB69BF
:1018CC0013F0805F34D1254BDA6942F08052DA6133
:1018DC00DB6903F080530193019B0125214B1B68AD
:1018EC0013F4807F26D0E368012B3DD0002B53D11D
:1018FC0003F1804303F504331A6A22F001021A62E1
:10190C001A6A22F004021A6233E0154B0022C3F863
:10191C008024FFF72FFD0546104B5B6A13F0020F76
:10192C00C7D0FFF727FD401B0228F5D90320D2E0D2
:10193C000025D3E70B4A136843F480731360FFF759
:10194C0019FD0646074B1B6813F4807FCBD1FFF7BC
:10195C0011FD801B6428F5D90320BCE00010024067
:10196C0000004242007000405F4A136A43F00103DA
:10197C001362E36833B3FFF7FDFC06465A4B1B6A50
:10198C0013F0020F2FD1FFF7F5FC801B41F28833C7
:10199C009842F3D903209EE0052B09D0524B1A6ACA
:1019AC0022F001021A621A6A22F004021A62E0E7BB
:1019BC004D4B1A6A42F004021A621A6A42F0010292
:1019CC001A62D6E7FFF7D6FC0646474B1B6A13F0A4
:1019DC00020F08D0FFF7CEFC801B41F288339842EF
:1019EC00F3D9032077E0E5B9E369002B72D03E4AC6
:1019FC00526802F00C02082A56D0022B17D03B4B2F
:101A0C0000221A66FFF7B6FC0446374B1B6813F02E
:101A1C00007F47D0FFF7AEFC001B0228F5D903204E
:101A2C0059E0314AD36923F08053D361DCE72F4B63
:101A3C0000221A66FFF79EFC05462B4B1B6813F021
:101A4C00007F06D0FFF796FC401B0228F5D9032037
:101A5C0041E0236AB3F5803F1AD023494B6823F445
:101A6C007413226A606A024313434B601F4B0122BA
:101A7C001A66FFF77FFC04461B4B1B6813F0007FB4
:101A8C000ED1FFF777FC001B0228F5D9032022E0CA
:101A9C00154A536823F40033A1680B435360DCE709
:101AAC00002018E0002016E0012B16D00E4B5B68CE
:101ABC0003F48031226A914211D103F47013626AEB
:101ACC0093420ED1002006E001207047012002E075
:101ADC00012000E0002002B070BD0120FBE70120D6
:101AEC00F9E70120F7E700BF001002400000424276
:101AFC000F4B5B6803F00C02082A01D00D487047AD
:101B0C00C3F383420C49885C13F4803F0BD0084B21
:101B1C005B68C3F34043094AD35C064A02FB00F0FE
:101B2C00B0FBF3F07047064B03FB00F0704700BFAF
:101B3C000010024000127A00A02B0008B02B000805
:101B4C0000093D00002800F0A08070B50D46044649
:101B5C00524B1B6803F007038B420BD24F4A13689E
:101B6C0023F007030B431360136803F007038B4246
:101B7C0040F08D80236813F0020F17D013F0040F80
:101B8C0004D0474A536843F4E0635360236813F06E
:101B9C00080F04D0424A536843F460535360404AE0
:101BAC00536823F0F003A1680B435360236813F0D0
:101BBC00010F31D06368012B20D0022B25D0384A7D
:101BCC00126812F0020F64D035494A6822F0030201
:101BDC0013434B60FFF7CEFB0646314B5B6803F0BB
:101BEC000C036268B3EB820F16D0FFF7C3FB801BAC
:101BFC0041F288339842F0D9032045E0284A126814
:101C0C0012F4003FE0D101203EE0254A126812F0A8
:101C1C00007FD9D1012037E0204B1B6803F007036C
:101C2C00AB420AD91D4A136823F007032B431360F8
:101C3C00136803F00703AB422DD1236813F0040F94
:101C4C0006D0174A536823F4E063E1680B435360F2
:101C5C00236813F0080F07D0114A536823F460531C
:101C6C00216943EAC1035360FFF742FF0C4B5B68E9
:101C7C00C3F303130B4AD35CD8400B4B18600B4BCC
:101C8C001868FFF733FB002070BD0120704701205E
:101C9C00FAE70120F8E70120F6E700BF0020024038
:101CAC0000100240902B00080000002008000020CB
:101CBC00014B1868704700BF0000002070B4036A25
:101CCC00026A22F0010202624668826922F0730203
:101CDC000C6844EA020523F002028B6813430D4C96
:101CEC00A04209D00B4CA0420DD0466085614A68D9
:101CFC004263036270BC704723F00803CA68134345
:101D0C0023F00403EEE726F440764A6932438E69E9
:101D1C001643EAE7002C014030B4036A026A22F44D
:101D2C00807202624568C26922F073020C68224319
:101D3C0023F400738C6843EA04230F4CA04209D0AF
:101D4C000D4CA0420ED04560C2614A68C26303626A
:101D5C0030BC704723F40063CC6843EA042323F4BB
:101D6C008063EDE725F440554C6945EA04158C6910
:101D7C0045EA0415E7E700BF002C014030B4036AC4
:101D8C00026A22F4805202624468C26922F4E6427A
:101D9C000D6842EA052223F400538D6843EA0533AB
:101DAC00074DA84206D04460C2614A6802640362CF
:101DBC0030BC704724F480444D6944EA8514F2E742
:101DCC00002C014010B4036A046A24F0010404627C
:101DDC00846924F0F00C4CEA021223F00A030B4342
:101DEC008261036210BC704710B4036A046A24F069
:101DFC0010040462846924F4704C4CEA023223F01F
:101E0C00A00343EA01138261036210BC704783682C
:101E1C0023F070030B4343F007038360704700000B
:101E2C0003681F4A90420AD0B0F1804F07D0A2F548
:101E3C009432904203D002F58062904203D123F099
:101E4C0070034A681343164A90420AD0B0F1804F8F
:101E5C0007D0A2F59432904203D002F580629042F2
:101E6C0003D123F44073CA68134323F080034A69F7
:101E7C00134303608B68C3620B688362084B984200
:101E8C000AD001234361036913F0010F03D00369E6
:101E9C0023F00103036170470B690363F1E700BF93
:101EAC00002C014040B310B5044690F83D30F3B11E
:101EBC00022384F83D30214651F8040BFFF7B0FFA4
:101ECC00012384F8463084F83E3084F83F3084F89F
:101EDC00403084F8413084F8423084F8433084F840
:101EEC00443084F8453084F83D30002010BD80F833
:101EFC003C30FFF74BF8DBE70120704740B310B5DF
:101F0C00044690F83D30F3B1022384F83D3021466D
:101F1C0051F8040BFFF784FF012384F8463084F852
:101F2C003E3084F83F3084F8403084F8413084F8F7
:101F3C00423084F8433084F8443084F8453084F8D7
:101F4C003D30002010BD80F83C30FFF735F8DBE762
:101F5C000120704730B4036A026A22F01002026258
:101F6C004468826922F4E6420D6842EA052223F0B5
:101F7C0020038D6843EA05130E4DA84209D00D4D80
:101F8C00A8420ED0446082614A688263036230BC0E
:101F9C00704723F08003CD6843EA051323F0400318
:101FAC00EDE724F440644D6944EA85048D6944EA04
:101FBC008504E7E7002C014038B590F83C30012B44
:101FCC0066D004460D46012380F83C300C2A5AD8C2
:101FDC00DFE802F0075959591B59595930595959C9
:101FEC0044000068FFF76AFE2268936943F0080317
:101FFC0093612268936923F00403936122689369C7
:10200C0029690B43936100203EE00068FFF7A2FFB3
:10201C002268936943F4006393612268936923F403
:10202C008063936122689369296943EA0123936170
:10203C00002029E00068FFF76FFE2268D36943F0A7
:10204C000803D3612268D36923F00403D3612268A7
:10205C00D36929690B43D361002015E00068FFF7B1
:10206C008DFE2268D36943F40063D3612268D3697F
:10207C0023F48063D3612268D369296943EA01237D
:10208C00D361002000E00120002384F83C3038BDEF
:10209C000220FCE710B4846824F47F4C42EA03224B
:1020AC000A4342EA0C02826010BC704790F83C3044
:1020BC00012B78D010B50446012380F83C30022364
:1020CC0080F83D300268936823F47F4323F0770354
:1020DC0093600B68602B4CD029D8402B54D00CD972
:1020EC00502B22D1CA6849680068FFF76BFE50215B
:1020FC002068FFF78CFE002005E0202B0DD009D9BD
:10210C00302B0AD00120012384F83D30002384F8C1
:10211C003C3010BD0BB1102B05D119462068FFF7D0
:10212C0076FE0020EFE70120EDE70120EBE7B3F5A9
:10213C00805F34D0B3F5005F0CD1CB684A688968F6
:10214C000068FFF7A7FF2268936843F4804393600D
:10215C000020D8E7702B24D1CB684A6889680068C6
:10216C00FFF798FF2268936843F077039360002091
:10217C00C9E7CA6849680068FFF736FE6021206825
:10218C00FFF745FE0020BEE7CA6849680068FFF704
:10219C0019FE40212068FFF73AFE0020B3E700202B
:1021AC00B1E70120AFE70220704701F01F010123C6
:1021BC0003FA01FC036A23EA0C030362036A02FAC2
:1021CC0001F10B430362704710B50446084651BB3E
:1021DC0094F83E30DBB2013B18BF0123002B5BD1DE
:1021EC00002839D1022384F83E30012201462068B0
:1021FC00FFF7DBFF23682A4A93423DD02368284A25
:10220C0093423ED0B3F1804F3BD0A2F5943293422F
:10221C0037D002F58062934233D01A6842F0010243
:10222C001A60002039E0042908D008290DD094F850
:10223C004130DBB2013B18BF0123CFE794F83F30AC
:10224C00DBB2013B18BF0123C8E794F84030DBB286
:10225C00013B18BF0123C1E7042805D0082807D08B
:10226C00022384F84130C0E7022384F83F30BCE7F6
:10227C00022384F84030B8E75A6C42F400425A64A6
:10228C00BCE79A6802F00702062A07D01A6842F0E7
:10229C0001021A60002000E0012010BD0020FCE7C4
:1022AC00002C014090F83C30012B2CD010B40123B1
:1022BC0080F83C30022380F83D3003685A689C68F3
:1022CC0022F0700C0A6842EA0C025A6003680F4A4A
:1022DC0093420AD0B3F1804F07D0A2F594329342C7
:1022EC0003D002F58062934204D124F080044A6842
:1022FC0014439C60012380F83D30002380F83C306F
:10230C00184610BC70470220704700BF002C0140DB
:10231C0090F83C30012B22D0012380F83C30CB6864
:10232C0023F440738A68134323F480634A6813438D
:10233C0023F400630A68134323F480530A6913439C
:10234C0023F400534A69134323F48043CA691343AB
:10235C0002685364002380F83C3018467047022012
:10236C0070470000FEF710FE0B480C490C4A002386
:10237C0002E0D458C4500433C4188C42F9D3094A2F
:10238C00094C002301E013600432A242FBD300F09D
:10239C000FF8FEF707FC7047000000203C040020FB
:1023AC00C42B00083C0400205C050020FEE7000064
:1023BC0070B50D4E0D4D761BB61006D0002455F899
:1023CC00043B01349847A642F9D1094E094D00F05F
:1023DC00D5F8761BB61006D0002455F8043B013412
:1023EC009847A642F9D170BDB82B0008B82B00084D
:1023FC00C02B0008B82B0008830730B548D0541EFA
:10240C00002A3FD00346CAB201E0013C3AD303F89C
:10241C00012B9D07F9D1032C2DD9CDB245EA052509
:10242C000F2C45EA054536D9A4F1100222F00F0C09
:10243C0003F1200EE6444FEA121C03F1100242E9AC
:10244C00045542E9025510327245F8D10CF10102E3
:10245C0014F00C0F03EB021204F00F0C13D0ACF1C0
:10246C00040323F003030433134442F8045B934244
:10247C00FBD10CF003042CB1CAB21C4403F8012BA1
:10248C009C42FBD130BD64461346002CF4D1F9E7D5
:10249C0003461446BFE71A46A446E0E7024B13B1C5
:1024AC00024800F005B8704700000000C92400087D
:1024BC00002301461A46184600F01AB838B5084BE6
:1024CC00084D5B1B9C1007D0043B1D44013C55F888
:1024DC0004399847002CF9D1BDE8384000F054B8C5
:1024EC00C42B0008C02B0008704700BF704700BF0A
:1024FC002DE9F047DFF87CA00646DAF80000984694
:10250C000F469146FFF7F0FF1B4B1B68D3F8484171
:10251C0024B365681F2D26DC5EB96B1C0235DAF816
:10252C000000636044F82570FFF7E0FF0020BDE871
:10253C00F087012304EB8501C1F88890D4F8882139
:10254C00AB401A43022EC4F88821C1F80881E4D1AB
:10255C00D4F88C211343C4F88C31DEE703F5A67450
:10256C00C3F84841D5E7DAF80000FFF7BFFF4FF09A
:10257C00FF30DCE738040020B42B0008F8B500BFAE
:10258C00F8BC08BC9E467047F8B500BFF8BC08BC48
:04259C009E467047A0
:1025A000000000000000000000000000000000002B
:1025B000000000F8000000000000003330000000C0
:1025C00000100C06100C06000000000000000000C7
:1025D00040C07840C0784000043F04043F04040039
:1025E000007088FC08300000001820FF211E000049
:1025F000F008F000E018000000211C031E211E005E
:1026000000F00888700000001E21232419272110E3
:1026100010160E0000000000000000000000000086
:10262000000000E01804020000000007182040002D
:1026300000020418E000000000402018070000001D
:10264000404080F0804040000202010F0102020081
:10265000000000F0000000000101011F0101010065
:10266000000000000000000080B0700000000000CA
:102670000000000000000000000101010101010153
:1026800000000000000000000030300000000000EA
:1026900000000000806018040060180601000000BF
:1026A00000E010080810E000000F102020100F00BC
:1026B000001010F8000000000020203F2020000043
:1026C000007008080888700000302824222130009B
:1026D00000300888884830000018202020110E00A3
:1026E0000000C02010F8000000070424243F24004C
:1026F00000F80888880808000019212020110E0021
:1027000000E0108888180000000F112020110E0032
:1027100000380808C83808000000003F000000002A
:102720000070880808887000001C222121221C00EB
:1027300000E010080810E0000000312222110F0014
:10274000000000C0C00000000000003030000000A9
:102750000000008000000000000080600000000019
:102760000000804020100800000102040810200032
:10277000404040404040400004040404040404007D
:102780000008102040800000002010080402010012
:10279000007048080808F000000000303601000012
:1027A000C030C828E810E0000718272423140B00C5
:1027B0000000C038E0000000203C2302022738203F
:1027C00008F8888888700000203F202020110E0023
:1027D000C03008080808380007182020201008001A
:1027E00008F808080810E000203F202020100F0003
:1027F00008F88888E8081000203F202023201800CF
:1028000008F88888E8081000203F20000300000036
:10281000C03008080838000007182020221E0200D7
:1028200008F808000008F808203F210101213F2096
:10283000000808F8080800000020203F20200000C1
:1028400000000808F8080800C08080807F000000B1
:1028500008F888C028180800203F200126382000EA
:1028600008F8080000000000203F20202020300051
:1028700008F8F800F8F80800203F003F003F20006B
:1028800008F830C00008F808203F200007183F0073
:10289000E01008080810E0000F10202020100F00A2
:1028A00008F808080808F000203F21010101000095
:1028B000E01008080810E0000F18242438504F00DA
:1028C00008F8888888887000203F2000030C30209A
:1028D00000708808080838000038202121221C00D8
:1028E000180808F8080818000000203F2000000021
:1028F00008F808000008F808001F202020201F000A
:102900000878880000C83808000007380E01000069
:10291000F80800F80008F800033C0700073C030033
:10292000081868808068180820302C03032C302099
:102930000838C800C83808000000203F2000000008
:1029400010080808C8380800203826212020180060
:10295000000000FE020202000000007F4040400034
:10296000000C30C000000000000000010638C0006C
:1029700000020202FE000000004040407F00000014
:102980000000040202020400000000000000000039
:102990000000000000000000808080808080808037
:1029A000000202040000000000000000000000001F
:1029B00000008080808000000019242222223F2015
:1029C00008F8008080000000003F112020110E0058
:1029D0000000008080800000000E112020201100E7
:1029E000000000808088F800000E112020103F2099
:1029F0000000808080800000001F2222222213001D
:102A0000008080F0888888180020203F2020000067
:102A10000000808080808000006B9494949360001C
:102A200008F8008080800000203F210000203F2027
:102A300000809898000000000020203F2020000027
:102A4000000000809898000000C08080807F000017
:102A500008F8000080808000203F24022D302000F4
:102A6000000808F8000000000020203F202000009F
:102A70008080808080808000203F20003F20003FB9
:102A80008080008080800000203F210000203F20C7
:102A90000000808080800000001F202020201F0078
:102AA000808000808000000080FFA12020110E00A7
:102AB0000000008080808000000E112020A0FF8098
:102AC000808080008080800020203F212000010045
:102AD000000080808080800000332424242419009A
:102AE000008080E0808000000000001F20200000A7
:102AF0008080000000808000001F202020103F20E8
:102B0000808080000080808000010E300806010077
:102B100080800080008080800F300C030C300F001C
:102B200000808000808080000020312E0E31200047
:102B3000808080000080808080818E701806010077
:102B400000808080808080000021302C2221300095
:102B500000000000807C020200000000003F4040B6
:102B600000000000FF00000000000000FF00000067
:102B70000002027C800000000040403F0000000096
:102B80000006010102020404000000000000000031
:102B9000000000000000000001020304060708090D
:102BA00002030405060708090A0B0C0D0E0F10108E
:082BB0000102000010000020EA
:082BB800A92400083101000806
:042BC0000D010008FB
:102BC40000127A0001000000100000000000000064
:102BD40000000000FC02002064030020CC0300205D
:102BE40000000000000000000000000000000000E1
:102BF40000000000000000000000000000000000D1
:102C040000000000000000000000000000000000C0
:102C140000000000000000000000000000000000B0
:102C240000000000000000000000000000000000A0
:102C34000000000000000000000000000000000090
:102C44000000000000000000000000000000000080
:102C54000000000000000000000000000000000070
:102C64000000000000000000000000000000000060
:102C7400000000000000000001000000000000004F
:102C84000E33CDAB34126DE6ECDE05000B00000014
:102C94000000000000000000000000000000000030
:102CA4000000000000000000000000000000000020
:102CB4000000000000000000000000000000000010
:102CC4000000000000000000000000000000000000
:0C2FF40000000000000000005805002054
:04000005080023715B
:00000001FF
